{"contracts/LiquidityProvider.sol":{"LiquidityProvider":{"abi":[{"inputs":[{"internalType":"address","name":"_uniswapRouterAddress","type":"address"},{"internalType":"address","name":"_positionManagerAddress","type":"address"}],"stateMutability":"nonpayable","type":"constructor"},{"inputs":[{"internalType":"address","name":"tokenAddress","type":"address"}],"name":"balance","outputs":[{"internalType":"uint256","name":"","type":"uint256"}],"stateMutability":"view","type":"function"},{"inputs":[{"internalType":"uint256","name":"tokenId","type":"uint256"},{"internalType":"uint128","name":"amount0Max","type":"uint128"},{"internalType":"uint128","name":"amount1Max","type":"uint128"},{"internalType":"address","name":"recipient","type":"address"}],"name":"collectTokens","outputs":[],"stateMutability":"nonpayable","type":"function"},{"inputs":[],"name":"owner","outputs":[{"internalType":"address","name":"","type":"address"}],"stateMutability":"view","type":"function"},{"inputs":[],"name":"positionManager","outputs":[{"internalType":"contract INonfungiblePositionManager","name":"","type":"address"}],"stateMutability":"view","type":"function"},{"inputs":[{"internalType":"address","name":"tokenA","type":"address"},{"internalType":"address","name":"tokenB","type":"address"},{"internalType":"uint24","name":"fee","type":"uint24"},{"internalType":"int24","name":"tickLower","type":"int24"},{"internalType":"int24","name":"tickUpper","type":"int24"},{"internalType":"uint256","name":"amountADesired","type":"uint256"},{"internalType":"uint256","name":"amountBDesired","type":"uint256"},{"internalType":"uint256","name":"amountAMin","type":"uint256"},{"internalType":"uint256","name":"amountBMin","type":"uint256"},{"internalType":"uint256","name":"deadline","type":"uint256"}],"name":"provideLiquidity","outputs":[{"internalType":"uint256","name":"tokenId","type":"uint256"}],"stateMutability":"nonpayable","type":"function"},{"inputs":[{"internalType":"uint256","name":"tokenId","type":"uint256"},{"internalType":"uint128","name":"liquidity","type":"uint128"},{"internalType":"uint256","name":"amount0Min","type":"uint256"},{"internalType":"uint256","name":"amount1Min","type":"uint256"},{"internalType":"uint256","name":"deadline","type":"uint256"}],"name":"removeLiquidity","outputs":[],"stateMutability":"nonpayable","type":"function"},{"inputs":[{"internalType":"address","name":"token","type":"address"},{"internalType":"uint256","name":"amount","type":"uint256"}],"name":"rescueTokens","outputs":[],"stateMutability":"nonpayable","type":"function"},{"inputs":[{"internalType":"address","name":"tokenAAddress","type":"address"},{"internalType":"uint256","name":"amount","type":"uint256"}],"name":"transferTokenAToContract","outputs":[{"internalType":"bool","name":"","type":"bool"}],"stateMutability":"nonpayable","type":"function"},{"inputs":[{"internalType":"address","name":"tokenBAddress","type":"address"},{"internalType":"uint256","name":"amount","type":"uint256"}],"name":"transferTokenBToContract","outputs":[{"internalType":"bool","name":"","type":"bool"}],"stateMutability":"nonpayable","type":"function"},{"inputs":[],"name":"uniswapRouter","outputs":[{"internalType":"contract ISwapRouter","name":"","type":"address"}],"stateMutability":"view","type":"function"}],"evm":{"bytecode":{"linkReferences":{},"object":"60806040523480156200001157600080fd5b506040516200182f3803806200182f833981810160405281019062000037919062000118565b336000806101000a81548173ffffffffffffffffffffffffffffffffffffffff021916908373ffffffffffffffffffffffffffffffffffffffff16021790555081600160006101000a81548173ffffffffffffffffffffffffffffffffffffffff021916908373ffffffffffffffffffffffffffffffffffffffff16021790555080600260006101000a81548173ffffffffffffffffffffffffffffffffffffffff021916908373ffffffffffffffffffffffffffffffffffffffff1602179055505050620001a7565b60008151905062000112816200018d565b92915050565b600080604083850312156200012c57600080fd5b60006200013c8582860162000101565b92505060206200014f8582860162000101565b9150509250929050565b600062000166826200016d565b9050919050565b600073ffffffffffffffffffffffffffffffffffffffff82169050919050565b620001988162000159565b8114620001a457600080fd5b50565b61167880620001b76000396000f3fe608060405234801561001057600080fd5b506004361061009e5760003560e01c80639b93710e116100665780639b93710e14610149578063a0bf2fec14610179578063a2416f74146101a9578063b1a573c2146101c5578063e3d670d7146101e15761009e565b806357376198146100a3578063735de9f7146100bf578063791b98bc146100dd57806388d5f81e146100fb5780638da5cb5b1461012b575b600080fd5b6100bd60048036038101906100b89190610ec6565b610211565b005b6100c7610351565b6040516100d49190611401565b60405180910390f35b6100e5610377565b6040516100f291906113e6565b60405180910390f35b61011560048036038101906101109190610deb565b61039d565b604051610122919061148e565b60405180910390f35b6101336106f1565b6040516101409190611350565b60405180910390f35b610163600480360381019061015e9190610ec6565b610715565b60405161017091906113cb565b60405180910390f35b610193600480360381019061018e9190610ec6565b61083d565b6040516101a091906113cb565b60405180910390f35b6101c360048036038101906101be919061101a565b610965565b005b6101df60048036038101906101da9190610f54565b610ae6565b005b6101fb60048036038101906101f69190610dc2565b610c88565b604051610208919061148e565b60405180910390f35b60008054906101000a900473ffffffffffffffffffffffffffffffffffffffff1673ffffffffffffffffffffffffffffffffffffffff163373ffffffffffffffffffffffffffffffffffffffff161461029f576040517f08c379a00000000000000000000000000000000000000000000000000000000081526004016102969061141c565b60405180910390fd5b8173ffffffffffffffffffffffffffffffffffffffff1663a9059cbb60008054906101000a900473ffffffffffffffffffffffffffffffffffffffff16836040518363ffffffff1660e01b81526004016102fa9291906113a2565b602060405180830381600087803b15801561031457600080fd5b505af1158015610328573d6000803e3d6000fd5b505050506040513d601f19601f8201168201806040525081019061034c9190610f02565b505050565b600160009054906101000a900473ffffffffffffffffffffffffffffffffffffffff1681565b600260009054906101000a900473ffffffffffffffffffffffffffffffffffffffff1681565b60008060009054906101000a900473ffffffffffffffffffffffffffffffffffffffff1673ffffffffffffffffffffffffffffffffffffffff163373ffffffffffffffffffffffffffffffffffffffff161461042e576040517f08c379a00000000000000000000000000000000000000000000000000000000081526004016104259061141c565b60405180910390fd5b8a73ffffffffffffffffffffffffffffffffffffffff1663095ea7b3600260009054906101000a900473ffffffffffffffffffffffffffffffffffffffff16886040518363ffffffff1660e01b815260040161048b9291906113a2565b602060405180830381600087803b1580156104a557600080fd5b505af11580156104b9573d6000803e3d6000fd5b505050506040513d601f19601f820116820180604052508101906104dd9190610f02565b508973ffffffffffffffffffffffffffffffffffffffff1663095ea7b3600260009054906101000a900473ffffffffffffffffffffffffffffffffffffffff16876040518363ffffffff1660e01b815260040161053b9291906113a2565b602060405180830381600087803b15801561055557600080fd5b505af1158015610569573d6000803e3d6000fd5b505050506040513d601f19601f8201168201806040525081019061058d9190610f02565b5060006040518061016001604052808d73ffffffffffffffffffffffffffffffffffffffff1681526020018c73ffffffffffffffffffffffffffffffffffffffff1681526020018b62ffffff1681526020018a60020b81526020018960020b81526020018881526020018781526020018681526020018581526020013073ffffffffffffffffffffffffffffffffffffffff168152602001848152509050600260009054906101000a900473ffffffffffffffffffffffffffffffffffffffff1673ffffffffffffffffffffffffffffffffffffffff166388316456826040518263ffffffff1660e01b81526004016106869190611472565b608060405180830381600087803b1580156106a057600080fd5b505af11580156106b4573d6000803e3d6000fd5b505050506040513d601f19601f820116820180604052508101906106d89190610fb7565b90915090505080925050509a9950505050505050505050565b60008054906101000a900473ffffffffffffffffffffffffffffffffffffffff1681565b60008060009054906101000a900473ffffffffffffffffffffffffffffffffffffffff1673ffffffffffffffffffffffffffffffffffffffff163373ffffffffffffffffffffffffffffffffffffffff16146107a6576040517f08c379a000000000000000000000000000000000000000000000000000000000815260040161079d9061141c565b60405180910390fd5b8273ffffffffffffffffffffffffffffffffffffffff166323b872dd3330856040518463ffffffff1660e01b81526004016107e39392919061136b565b602060405180830381600087803b1580156107fd57600080fd5b505af1158015610811573d6000803e3d6000fd5b505050506040513d601f19601f820116820180604052508101906108359190610f02565b905092915050565b60008060009054906101000a900473ffffffffffffffffffffffffffffffffffffffff1673ffffffffffffffffffffffffffffffffffffffff163373ffffffffffffffffffffffffffffffffffffffff16146108ce576040517f08c379a00000000000000000000000000000000000000000000000000000000081526004016108c59061141c565b60405180910390fd5b8273ffffffffffffffffffffffffffffffffffffffff166323b872dd3330856040518463ffffffff1660e01b815260040161090b9392919061136b565b602060405180830381600087803b15801561092557600080fd5b505af1158015610939573d6000803e3d6000fd5b505050506040513d601f19601f8201168201806040525081019061095d9190610f02565b905092915050565b60008054906101000a900473ffffffffffffffffffffffffffffffffffffffff1673ffffffffffffffffffffffffffffffffffffffff163373ffffffffffffffffffffffffffffffffffffffff16146109f3576040517f08c379a00000000000000000000000000000000000000000000000000000000081526004016109ea9061141c565b60405180910390fd5b60006040518060a00160405280878152602001866fffffffffffffffffffffffffffffffff168152602001858152602001848152602001838152509050600260009054906101000a900473ffffffffffffffffffffffffffffffffffffffff1673ffffffffffffffffffffffffffffffffffffffff16630c49ccbe826040518263ffffffff1660e01b8152600401610a8b9190611457565b6040805180830381600087803b158015610aa457600080fd5b505af1158015610ab8573d6000803e3d6000fd5b505050506040513d601f19601f82011682018060405250810190610adc9190611091565b5050505050505050565b60008054906101000a900473ffffffffffffffffffffffffffffffffffffffff1673ffffffffffffffffffffffffffffffffffffffff163373ffffffffffffffffffffffffffffffffffffffff1614610b74576040517f08c379a0000000000000000000000000000000000000000000000000000000008152600401610b6b9061141c565b60405180910390fd5b600060405180608001604052808681526020018373ffffffffffffffffffffffffffffffffffffffff168152602001856fffffffffffffffffffffffffffffffff168152602001846fffffffffffffffffffffffffffffffff168152509050600260009054906101000a900473ffffffffffffffffffffffffffffffffffffffff1673ffffffffffffffffffffffffffffffffffffffff1663fc6f7865826040518263ffffffff1660e01b8152600401610c2e919061143c565b6040805180830381600087803b158015610c4757600080fd5b505af1158015610c5b573d6000803e3d6000fd5b505050506040513d601f19601f82011682018060405250810190610c7f9190611091565b50505050505050565b60008173ffffffffffffffffffffffffffffffffffffffff166370a08231306040518263ffffffff1660e01b8152600401610cc39190611350565b60206040518083038186803b158015610cdb57600080fd5b505afa158015610cef573d6000803e3d6000fd5b505050506040513d601f19601f82011682018060405250810190610d139190610f2b565b9050919050565b600081359050610d29816115b8565b92915050565b600081519050610d3e816115cf565b92915050565b600081359050610d53816115e6565b92915050565b600081359050610d68816115fd565b92915050565b600081519050610d7d816115fd565b92915050565b600081359050610d9281611614565b92915050565b600081359050610da78161162b565b92915050565b600081519050610dbc8161162b565b92915050565b600060208284031215610dd457600080fd5b6000610de284828501610d1a565b91505092915050565b6000806000806000806000806000806101408b8d031215610e0b57600080fd5b6000610e198d828e01610d1a565b9a50506020610e2a8d828e01610d1a565b9950506040610e3b8d828e01610d83565b9850506060610e4c8d828e01610d44565b9750506080610e5d8d828e01610d44565b96505060a0610e6e8d828e01610d98565b95505060c0610e7f8d828e01610d98565b94505060e0610e908d828e01610d98565b935050610100610ea28d828e01610d98565b925050610120610eb48d828e01610d98565b9150509295989b9194979a5092959850565b60008060408385031215610ed957600080fd5b6000610ee785828601610d1a565b9250506020610ef885828601610d98565b9150509250929050565b600060208284031215610f1457600080fd5b6000610f2284828501610d2f565b91505092915050565b600060208284031215610f3d57600080fd5b6000610f4b84828501610dad565b91505092915050565b60008060008060808587031215610f6a57600080fd5b6000610f7887828801610d98565b9450506020610f8987828801610d59565b9350506040610f9a87828801610d59565b9250506060610fab87828801610d1a565b91505092959194509250565b60008060008060808587031215610fcd57600080fd5b6000610fdb87828801610dad565b9450506020610fec87828801610d6e565b9350506040610ffd87828801610dad565b925050606061100e87828801610dad565b91505092959194509250565b600080600080600060a0868803121561103257600080fd5b600061104088828901610d98565b955050602061105188828901610d59565b945050604061106288828901610d98565b935050606061107388828901610d98565b925050608061108488828901610d98565b9150509295509295909350565b600080604083850312156110a457600080fd5b60006110b285828601610dad565b92505060206110c385828601610dad565b9150509250929050565b6110d68161153a565b82525050565b6110e5816114ba565b82525050565b6110f4816114ba565b82525050565b611103816114cc565b82525050565b6111128161154c565b82525050565b61112181611570565b82525050565b611130816114d8565b82525050565b60006111436016836114a9565b91507f4e6f742074686520636f6e7472616374206f776e6572000000000000000000006000830152602082019050919050565b60808201600082015161118c6000850182611332565b50602082015161119f60208501826110dc565b5060408201516111b26040850182611314565b5060608201516111c56060850182611314565b50505050565b60a0820160008201516111e16000850182611332565b5060208201516111f46020850182611314565b5060408201516112076040850182611332565b50606082015161121a6060850182611332565b50608082015161122d6080850182611332565b50505050565b6101608201600082015161124a60008501826110dc565b50602082015161125d60208501826110dc565b5060408201516112706040850182611323565b5060608201516112836060850182611127565b5060808201516112966080850182611127565b5060a08201516112a960a0850182611332565b5060c08201516112bc60c0850182611332565b5060e08201516112cf60e0850182611332565b506101008201516112e4610100850182611332565b506101208201516112f96101208501826110dc565b5061014082015161130e610140850182611332565b50505050565b61131d816114e5565b82525050565b61132c81611521565b82525050565b61133b81611530565b82525050565b61134a81611530565b82525050565b600060208201905061136560008301846110eb565b92915050565b600060608201905061138060008301866110cd565b61138d60208301856110eb565b61139a6040830184611341565b949350505050565b60006040820190506113b760008301856110eb565b6113c46020830184611341565b9392505050565b60006020820190506113e060008301846110fa565b92915050565b60006020820190506113fb6000830184611109565b92915050565b60006020820190506114166000830184611118565b92915050565b6000602082019050818103600083015261143581611136565b9050919050565b60006080820190506114516000830184611176565b92915050565b600060a08201905061146c60008301846111cb565b92915050565b6000610160820190506114886000830184611233565b92915050565b60006020820190506114a36000830184611341565b92915050565b600082825260208201905092915050565b60006114c582611501565b9050919050565b60008115159050919050565b60008160020b9050919050565b60006fffffffffffffffffffffffffffffffff82169050919050565b600073ffffffffffffffffffffffffffffffffffffffff82169050919050565b600062ffffff82169050919050565b6000819050919050565b600061154582611594565b9050919050565b60006115578261155e565b9050919050565b600061156982611501565b9050919050565b600061157b82611582565b9050919050565b600061158d82611501565b9050919050565b600061159f826115a6565b9050919050565b60006115b182611501565b9050919050565b6115c1816114ba565b81146115cc57600080fd5b50565b6115d8816114cc565b81146115e357600080fd5b50565b6115ef816114d8565b81146115fa57600080fd5b50565b611606816114e5565b811461161157600080fd5b50565b61161d81611521565b811461162857600080fd5b50565b61163481611530565b811461163f57600080fd5b5056fea26469706673582212203233f2db40f30d42f54787c67b390a45857c4cac1eb8456d77787075c188cc5664736f6c63430007060033","opcodes":"PUSH1 0x80 PUSH1 0x40 MSTORE CALLVALUE DUP1 ISZERO PUSH3 0x11 JUMPI PUSH1 0x0 DUP1 REVERT JUMPDEST POP PUSH1 0x40 MLOAD PUSH3 0x182F CODESIZE SUB DUP1 PUSH3 0x182F DUP4 CODECOPY DUP2 DUP2 ADD PUSH1 0x40 MSTORE DUP2 ADD SWAP1 PUSH3 0x37 SWAP2 SWAP1 PUSH3 0x118 JUMP JUMPDEST CALLER PUSH1 0x0 DUP1 PUSH2 0x100 EXP DUP2 SLOAD DUP2 PUSH20 0xFFFFFFFFFFFFFFFFFFFFFFFFFFFFFFFFFFFFFFFF MUL NOT AND SWAP1 DUP4 PUSH20 0xFFFFFFFFFFFFFFFFFFFFFFFFFFFFFFFFFFFFFFFF AND MUL OR SWAP1 SSTORE POP DUP2 PUSH1 0x1 PUSH1 0x0 PUSH2 0x100 EXP DUP2 SLOAD DUP2 PUSH20 0xFFFFFFFFFFFFFFFFFFFFFFFFFFFFFFFFFFFFFFFF MUL NOT AND SWAP1 DUP4 PUSH20 0xFFFFFFFFFFFFFFFFFFFFFFFFFFFFFFFFFFFFFFFF AND MUL OR SWAP1 SSTORE POP DUP1 PUSH1 0x2 PUSH1 0x0 PUSH2 0x100 EXP DUP2 SLOAD DUP2 PUSH20 0xFFFFFFFFFFFFFFFFFFFFFFFFFFFFFFFFFFFFFFFF MUL NOT AND SWAP1 DUP4 PUSH20 0xFFFFFFFFFFFFFFFFFFFFFFFFFFFFFFFFFFFFFFFF AND MUL OR SWAP1 SSTORE POP POP POP PUSH3 0x1A7 JUMP JUMPDEST PUSH1 0x0 DUP2 MLOAD SWAP1 POP PUSH3 0x112 DUP2 PUSH3 0x18D JUMP JUMPDEST SWAP3 SWAP2 POP POP JUMP JUMPDEST PUSH1 0x0 DUP1 PUSH1 0x40 DUP4 DUP6 SUB SLT ISZERO PUSH3 0x12C JUMPI PUSH1 0x0 DUP1 REVERT JUMPDEST PUSH1 0x0 PUSH3 0x13C DUP6 DUP3 DUP7 ADD PUSH3 0x101 JUMP JUMPDEST SWAP3 POP POP PUSH1 0x20 PUSH3 0x14F DUP6 DUP3 DUP7 ADD PUSH3 0x101 JUMP JUMPDEST SWAP2 POP POP SWAP3 POP SWAP3 SWAP1 POP JUMP JUMPDEST PUSH1 0x0 PUSH3 0x166 DUP3 PUSH3 0x16D JUMP JUMPDEST SWAP1 POP SWAP2 SWAP1 POP JUMP JUMPDEST PUSH1 0x0 PUSH20 0xFFFFFFFFFFFFFFFFFFFFFFFFFFFFFFFFFFFFFFFF DUP3 AND SWAP1 POP SWAP2 SWAP1 POP JUMP JUMPDEST PUSH3 0x198 DUP2 PUSH3 0x159 JUMP JUMPDEST DUP2 EQ PUSH3 0x1A4 JUMPI PUSH1 0x0 DUP1 REVERT JUMPDEST POP JUMP JUMPDEST PUSH2 0x1678 DUP1 PUSH3 0x1B7 PUSH1 0x0 CODECOPY PUSH1 0x0 RETURN INVALID PUSH1 0x80 PUSH1 0x40 MSTORE CALLVALUE DUP1 ISZERO PUSH2 0x10 JUMPI PUSH1 0x0 DUP1 REVERT JUMPDEST POP PUSH1 0x4 CALLDATASIZE LT PUSH2 0x9E JUMPI PUSH1 0x0 CALLDATALOAD PUSH1 0xE0 SHR DUP1 PUSH4 0x9B93710E GT PUSH2 0x66 JUMPI DUP1 PUSH4 0x9B93710E EQ PUSH2 0x149 JUMPI DUP1 PUSH4 0xA0BF2FEC EQ PUSH2 0x179 JUMPI DUP1 PUSH4 0xA2416F74 EQ PUSH2 0x1A9 JUMPI DUP1 PUSH4 0xB1A573C2 EQ PUSH2 0x1C5 JUMPI DUP1 PUSH4 0xE3D670D7 EQ PUSH2 0x1E1 JUMPI PUSH2 0x9E JUMP JUMPDEST DUP1 PUSH4 0x57376198 EQ PUSH2 0xA3 JUMPI DUP1 PUSH4 0x735DE9F7 EQ PUSH2 0xBF JUMPI DUP1 PUSH4 0x791B98BC EQ PUSH2 0xDD JUMPI DUP1 PUSH4 0x88D5F81E EQ PUSH2 0xFB JUMPI DUP1 PUSH4 0x8DA5CB5B EQ PUSH2 0x12B JUMPI JUMPDEST PUSH1 0x0 DUP1 REVERT JUMPDEST PUSH2 0xBD PUSH1 0x4 DUP1 CALLDATASIZE SUB DUP2 ADD SWAP1 PUSH2 0xB8 SWAP2 SWAP1 PUSH2 0xEC6 JUMP JUMPDEST PUSH2 0x211 JUMP JUMPDEST STOP JUMPDEST PUSH2 0xC7 PUSH2 0x351 JUMP JUMPDEST PUSH1 0x40 MLOAD PUSH2 0xD4 SWAP2 SWAP1 PUSH2 0x1401 JUMP JUMPDEST PUSH1 0x40 MLOAD DUP1 SWAP2 SUB SWAP1 RETURN JUMPDEST PUSH2 0xE5 PUSH2 0x377 JUMP JUMPDEST PUSH1 0x40 MLOAD PUSH2 0xF2 SWAP2 SWAP1 PUSH2 0x13E6 JUMP JUMPDEST PUSH1 0x40 MLOAD DUP1 SWAP2 SUB SWAP1 RETURN JUMPDEST PUSH2 0x115 PUSH1 0x4 DUP1 CALLDATASIZE SUB DUP2 ADD SWAP1 PUSH2 0x110 SWAP2 SWAP1 PUSH2 0xDEB JUMP JUMPDEST PUSH2 0x39D JUMP JUMPDEST PUSH1 0x40 MLOAD PUSH2 0x122 SWAP2 SWAP1 PUSH2 0x148E JUMP JUMPDEST PUSH1 0x40 MLOAD DUP1 SWAP2 SUB SWAP1 RETURN JUMPDEST PUSH2 0x133 PUSH2 0x6F1 JUMP JUMPDEST PUSH1 0x40 MLOAD PUSH2 0x140 SWAP2 SWAP1 PUSH2 0x1350 JUMP JUMPDEST PUSH1 0x40 MLOAD DUP1 SWAP2 SUB SWAP1 RETURN JUMPDEST PUSH2 0x163 PUSH1 0x4 DUP1 CALLDATASIZE SUB DUP2 ADD SWAP1 PUSH2 0x15E SWAP2 SWAP1 PUSH2 0xEC6 JUMP JUMPDEST PUSH2 0x715 JUMP JUMPDEST PUSH1 0x40 MLOAD PUSH2 0x170 SWAP2 SWAP1 PUSH2 0x13CB JUMP JUMPDEST PUSH1 0x40 MLOAD DUP1 SWAP2 SUB SWAP1 RETURN JUMPDEST PUSH2 0x193 PUSH1 0x4 DUP1 CALLDATASIZE SUB DUP2 ADD SWAP1 PUSH2 0x18E SWAP2 SWAP1 PUSH2 0xEC6 JUMP JUMPDEST PUSH2 0x83D JUMP JUMPDEST PUSH1 0x40 MLOAD PUSH2 0x1A0 SWAP2 SWAP1 PUSH2 0x13CB JUMP JUMPDEST PUSH1 0x40 MLOAD DUP1 SWAP2 SUB SWAP1 RETURN JUMPDEST PUSH2 0x1C3 PUSH1 0x4 DUP1 CALLDATASIZE SUB DUP2 ADD SWAP1 PUSH2 0x1BE SWAP2 SWAP1 PUSH2 0x101A JUMP JUMPDEST PUSH2 0x965 JUMP JUMPDEST STOP JUMPDEST PUSH2 0x1DF PUSH1 0x4 DUP1 CALLDATASIZE SUB DUP2 ADD SWAP1 PUSH2 0x1DA SWAP2 SWAP1 PUSH2 0xF54 JUMP JUMPDEST PUSH2 0xAE6 JUMP JUMPDEST STOP JUMPDEST PUSH2 0x1FB PUSH1 0x4 DUP1 CALLDATASIZE SUB DUP2 ADD SWAP1 PUSH2 0x1F6 SWAP2 SWAP1 PUSH2 0xDC2 JUMP JUMPDEST PUSH2 0xC88 JUMP JUMPDEST PUSH1 0x40 MLOAD PUSH2 0x208 SWAP2 SWAP1 PUSH2 0x148E JUMP JUMPDEST PUSH1 0x40 MLOAD DUP1 SWAP2 SUB SWAP1 RETURN JUMPDEST PUSH1 0x0 DUP1 SLOAD SWAP1 PUSH2 0x100 EXP SWAP1 DIV PUSH20 0xFFFFFFFFFFFFFFFFFFFFFFFFFFFFFFFFFFFFFFFF AND PUSH20 0xFFFFFFFFFFFFFFFFFFFFFFFFFFFFFFFFFFFFFFFF AND CALLER PUSH20 0xFFFFFFFFFFFFFFFFFFFFFFFFFFFFFFFFFFFFFFFF AND EQ PUSH2 0x29F JUMPI PUSH1 0x40 MLOAD PUSH32 0x8C379A000000000000000000000000000000000000000000000000000000000 DUP2 MSTORE PUSH1 0x4 ADD PUSH2 0x296 SWAP1 PUSH2 0x141C JUMP JUMPDEST PUSH1 0x40 MLOAD DUP1 SWAP2 SUB SWAP1 REVERT JUMPDEST DUP2 PUSH20 0xFFFFFFFFFFFFFFFFFFFFFFFFFFFFFFFFFFFFFFFF AND PUSH4 0xA9059CBB PUSH1 0x0 DUP1 SLOAD SWAP1 PUSH2 0x100 EXP SWAP1 DIV PUSH20 0xFFFFFFFFFFFFFFFFFFFFFFFFFFFFFFFFFFFFFFFF AND DUP4 PUSH1 0x40 MLOAD DUP4 PUSH4 0xFFFFFFFF AND PUSH1 0xE0 SHL DUP2 MSTORE PUSH1 0x4 ADD PUSH2 0x2FA SWAP3 SWAP2 SWAP1 PUSH2 0x13A2 JUMP JUMPDEST PUSH1 0x20 PUSH1 0x40 MLOAD DUP1 DUP4 SUB DUP2 PUSH1 0x0 DUP8 DUP1 EXTCODESIZE ISZERO DUP1 ISZERO PUSH2 0x314 JUMPI PUSH1 0x0 DUP1 REVERT JUMPDEST POP GAS CALL ISZERO DUP1 ISZERO PUSH2 0x328 JUMPI RETURNDATASIZE PUSH1 0x0 DUP1 RETURNDATACOPY RETURNDATASIZE PUSH1 0x0 REVERT JUMPDEST POP POP POP POP PUSH1 0x40 MLOAD RETURNDATASIZE PUSH1 0x1F NOT PUSH1 0x1F DUP3 ADD AND DUP3 ADD DUP1 PUSH1 0x40 MSTORE POP DUP2 ADD SWAP1 PUSH2 0x34C SWAP2 SWAP1 PUSH2 0xF02 JUMP JUMPDEST POP POP POP JUMP JUMPDEST PUSH1 0x1 PUSH1 0x0 SWAP1 SLOAD SWAP1 PUSH2 0x100 EXP SWAP1 DIV PUSH20 0xFFFFFFFFFFFFFFFFFFFFFFFFFFFFFFFFFFFFFFFF AND DUP2 JUMP JUMPDEST PUSH1 0x2 PUSH1 0x0 SWAP1 SLOAD SWAP1 PUSH2 0x100 EXP SWAP1 DIV PUSH20 0xFFFFFFFFFFFFFFFFFFFFFFFFFFFFFFFFFFFFFFFF AND DUP2 JUMP JUMPDEST PUSH1 0x0 DUP1 PUSH1 0x0 SWAP1 SLOAD SWAP1 PUSH2 0x100 EXP SWAP1 DIV PUSH20 0xFFFFFFFFFFFFFFFFFFFFFFFFFFFFFFFFFFFFFFFF AND PUSH20 0xFFFFFFFFFFFFFFFFFFFFFFFFFFFFFFFFFFFFFFFF AND CALLER PUSH20 0xFFFFFFFFFFFFFFFFFFFFFFFFFFFFFFFFFFFFFFFF AND EQ PUSH2 0x42E JUMPI PUSH1 0x40 MLOAD PUSH32 0x8C379A000000000000000000000000000000000000000000000000000000000 DUP2 MSTORE PUSH1 0x4 ADD PUSH2 0x425 SWAP1 PUSH2 0x141C JUMP JUMPDEST PUSH1 0x40 MLOAD DUP1 SWAP2 SUB SWAP1 REVERT JUMPDEST DUP11 PUSH20 0xFFFFFFFFFFFFFFFFFFFFFFFFFFFFFFFFFFFFFFFF AND PUSH4 0x95EA7B3 PUSH1 0x2 PUSH1 0x0 SWAP1 SLOAD SWAP1 PUSH2 0x100 EXP SWAP1 DIV PUSH20 0xFFFFFFFFFFFFFFFFFFFFFFFFFFFFFFFFFFFFFFFF AND DUP9 PUSH1 0x40 MLOAD DUP4 PUSH4 0xFFFFFFFF AND PUSH1 0xE0 SHL DUP2 MSTORE PUSH1 0x4 ADD PUSH2 0x48B SWAP3 SWAP2 SWAP1 PUSH2 0x13A2 JUMP JUMPDEST PUSH1 0x20 PUSH1 0x40 MLOAD DUP1 DUP4 SUB DUP2 PUSH1 0x0 DUP8 DUP1 EXTCODESIZE ISZERO DUP1 ISZERO PUSH2 0x4A5 JUMPI PUSH1 0x0 DUP1 REVERT JUMPDEST POP GAS CALL ISZERO DUP1 ISZERO PUSH2 0x4B9 JUMPI RETURNDATASIZE PUSH1 0x0 DUP1 RETURNDATACOPY RETURNDATASIZE PUSH1 0x0 REVERT JUMPDEST POP POP POP POP PUSH1 0x40 MLOAD RETURNDATASIZE PUSH1 0x1F NOT PUSH1 0x1F DUP3 ADD AND DUP3 ADD DUP1 PUSH1 0x40 MSTORE POP DUP2 ADD SWAP1 PUSH2 0x4DD SWAP2 SWAP1 PUSH2 0xF02 JUMP JUMPDEST POP DUP10 PUSH20 0xFFFFFFFFFFFFFFFFFFFFFFFFFFFFFFFFFFFFFFFF AND PUSH4 0x95EA7B3 PUSH1 0x2 PUSH1 0x0 SWAP1 SLOAD SWAP1 PUSH2 0x100 EXP SWAP1 DIV PUSH20 0xFFFFFFFFFFFFFFFFFFFFFFFFFFFFFFFFFFFFFFFF AND DUP8 PUSH1 0x40 MLOAD DUP4 PUSH4 0xFFFFFFFF AND PUSH1 0xE0 SHL DUP2 MSTORE PUSH1 0x4 ADD PUSH2 0x53B SWAP3 SWAP2 SWAP1 PUSH2 0x13A2 JUMP JUMPDEST PUSH1 0x20 PUSH1 0x40 MLOAD DUP1 DUP4 SUB DUP2 PUSH1 0x0 DUP8 DUP1 EXTCODESIZE ISZERO DUP1 ISZERO PUSH2 0x555 JUMPI PUSH1 0x0 DUP1 REVERT JUMPDEST POP GAS CALL ISZERO DUP1 ISZERO PUSH2 0x569 JUMPI RETURNDATASIZE PUSH1 0x0 DUP1 RETURNDATACOPY RETURNDATASIZE PUSH1 0x0 REVERT JUMPDEST POP POP POP POP PUSH1 0x40 MLOAD RETURNDATASIZE PUSH1 0x1F NOT PUSH1 0x1F DUP3 ADD AND DUP3 ADD DUP1 PUSH1 0x40 MSTORE POP DUP2 ADD SWAP1 PUSH2 0x58D SWAP2 SWAP1 PUSH2 0xF02 JUMP JUMPDEST POP PUSH1 0x0 PUSH1 0x40 MLOAD DUP1 PUSH2 0x160 ADD PUSH1 0x40 MSTORE DUP1 DUP14 PUSH20 0xFFFFFFFFFFFFFFFFFFFFFFFFFFFFFFFFFFFFFFFF AND DUP2 MSTORE PUSH1 0x20 ADD DUP13 PUSH20 0xFFFFFFFFFFFFFFFFFFFFFFFFFFFFFFFFFFFFFFFF AND DUP2 MSTORE PUSH1 0x20 ADD DUP12 PUSH3 0xFFFFFF AND DUP2 MSTORE PUSH1 0x20 ADD DUP11 PUSH1 0x2 SIGNEXTEND DUP2 MSTORE PUSH1 0x20 ADD DUP10 PUSH1 0x2 SIGNEXTEND DUP2 MSTORE PUSH1 0x20 ADD DUP9 DUP2 MSTORE PUSH1 0x20 ADD DUP8 DUP2 MSTORE PUSH1 0x20 ADD DUP7 DUP2 MSTORE PUSH1 0x20 ADD DUP6 DUP2 MSTORE PUSH1 0x20 ADD ADDRESS PUSH20 0xFFFFFFFFFFFFFFFFFFFFFFFFFFFFFFFFFFFFFFFF AND DUP2 MSTORE PUSH1 0x20 ADD DUP5 DUP2 MSTORE POP SWAP1 POP PUSH1 0x2 PUSH1 0x0 SWAP1 SLOAD SWAP1 PUSH2 0x100 EXP SWAP1 DIV PUSH20 0xFFFFFFFFFFFFFFFFFFFFFFFFFFFFFFFFFFFFFFFF AND PUSH20 0xFFFFFFFFFFFFFFFFFFFFFFFFFFFFFFFFFFFFFFFF AND PUSH4 0x88316456 DUP3 PUSH1 0x40 MLOAD DUP3 PUSH4 0xFFFFFFFF AND PUSH1 0xE0 SHL DUP2 MSTORE PUSH1 0x4 ADD PUSH2 0x686 SWAP2 SWAP1 PUSH2 0x1472 JUMP JUMPDEST PUSH1 0x80 PUSH1 0x40 MLOAD DUP1 DUP4 SUB DUP2 PUSH1 0x0 DUP8 DUP1 EXTCODESIZE ISZERO DUP1 ISZERO PUSH2 0x6A0 JUMPI PUSH1 0x0 DUP1 REVERT JUMPDEST POP GAS CALL ISZERO DUP1 ISZERO PUSH2 0x6B4 JUMPI RETURNDATASIZE PUSH1 0x0 DUP1 RETURNDATACOPY RETURNDATASIZE PUSH1 0x0 REVERT JUMPDEST POP POP POP POP PUSH1 0x40 MLOAD RETURNDATASIZE PUSH1 0x1F NOT PUSH1 0x1F DUP3 ADD AND DUP3 ADD DUP1 PUSH1 0x40 MSTORE POP DUP2 ADD SWAP1 PUSH2 0x6D8 SWAP2 SWAP1 PUSH2 0xFB7 JUMP JUMPDEST SWAP1 SWAP2 POP SWAP1 POP POP DUP1 SWAP3 POP POP POP SWAP11 SWAP10 POP POP POP POP POP POP POP POP POP POP JUMP JUMPDEST PUSH1 0x0 DUP1 SLOAD SWAP1 PUSH2 0x100 EXP SWAP1 DIV PUSH20 0xFFFFFFFFFFFFFFFFFFFFFFFFFFFFFFFFFFFFFFFF AND DUP2 JUMP JUMPDEST PUSH1 0x0 DUP1 PUSH1 0x0 SWAP1 SLOAD SWAP1 PUSH2 0x100 EXP SWAP1 DIV PUSH20 0xFFFFFFFFFFFFFFFFFFFFFFFFFFFFFFFFFFFFFFFF AND PUSH20 0xFFFFFFFFFFFFFFFFFFFFFFFFFFFFFFFFFFFFFFFF AND CALLER PUSH20 0xFFFFFFFFFFFFFFFFFFFFFFFFFFFFFFFFFFFFFFFF AND EQ PUSH2 0x7A6 JUMPI PUSH1 0x40 MLOAD PUSH32 0x8C379A000000000000000000000000000000000000000000000000000000000 DUP2 MSTORE PUSH1 0x4 ADD PUSH2 0x79D SWAP1 PUSH2 0x141C JUMP JUMPDEST PUSH1 0x40 MLOAD DUP1 SWAP2 SUB SWAP1 REVERT JUMPDEST DUP3 PUSH20 0xFFFFFFFFFFFFFFFFFFFFFFFFFFFFFFFFFFFFFFFF AND PUSH4 0x23B872DD CALLER ADDRESS DUP6 PUSH1 0x40 MLOAD DUP5 PUSH4 0xFFFFFFFF AND PUSH1 0xE0 SHL DUP2 MSTORE PUSH1 0x4 ADD PUSH2 0x7E3 SWAP4 SWAP3 SWAP2 SWAP1 PUSH2 0x136B JUMP JUMPDEST PUSH1 0x20 PUSH1 0x40 MLOAD DUP1 DUP4 SUB DUP2 PUSH1 0x0 DUP8 DUP1 EXTCODESIZE ISZERO DUP1 ISZERO PUSH2 0x7FD JUMPI PUSH1 0x0 DUP1 REVERT JUMPDEST POP GAS CALL ISZERO DUP1 ISZERO PUSH2 0x811 JUMPI RETURNDATASIZE PUSH1 0x0 DUP1 RETURNDATACOPY RETURNDATASIZE PUSH1 0x0 REVERT JUMPDEST POP POP POP POP PUSH1 0x40 MLOAD RETURNDATASIZE PUSH1 0x1F NOT PUSH1 0x1F DUP3 ADD AND DUP3 ADD DUP1 PUSH1 0x40 MSTORE POP DUP2 ADD SWAP1 PUSH2 0x835 SWAP2 SWAP1 PUSH2 0xF02 JUMP JUMPDEST SWAP1 POP SWAP3 SWAP2 POP POP JUMP JUMPDEST PUSH1 0x0 DUP1 PUSH1 0x0 SWAP1 SLOAD SWAP1 PUSH2 0x100 EXP SWAP1 DIV PUSH20 0xFFFFFFFFFFFFFFFFFFFFFFFFFFFFFFFFFFFFFFFF AND PUSH20 0xFFFFFFFFFFFFFFFFFFFFFFFFFFFFFFFFFFFFFFFF AND CALLER PUSH20 0xFFFFFFFFFFFFFFFFFFFFFFFFFFFFFFFFFFFFFFFF AND EQ PUSH2 0x8CE JUMPI PUSH1 0x40 MLOAD PUSH32 0x8C379A000000000000000000000000000000000000000000000000000000000 DUP2 MSTORE PUSH1 0x4 ADD PUSH2 0x8C5 SWAP1 PUSH2 0x141C JUMP JUMPDEST PUSH1 0x40 MLOAD DUP1 SWAP2 SUB SWAP1 REVERT JUMPDEST DUP3 PUSH20 0xFFFFFFFFFFFFFFFFFFFFFFFFFFFFFFFFFFFFFFFF AND PUSH4 0x23B872DD CALLER ADDRESS DUP6 PUSH1 0x40 MLOAD DUP5 PUSH4 0xFFFFFFFF AND PUSH1 0xE0 SHL DUP2 MSTORE PUSH1 0x4 ADD PUSH2 0x90B SWAP4 SWAP3 SWAP2 SWAP1 PUSH2 0x136B JUMP JUMPDEST PUSH1 0x20 PUSH1 0x40 MLOAD DUP1 DUP4 SUB DUP2 PUSH1 0x0 DUP8 DUP1 EXTCODESIZE ISZERO DUP1 ISZERO PUSH2 0x925 JUMPI PUSH1 0x0 DUP1 REVERT JUMPDEST POP GAS CALL ISZERO DUP1 ISZERO PUSH2 0x939 JUMPI RETURNDATASIZE PUSH1 0x0 DUP1 RETURNDATACOPY RETURNDATASIZE PUSH1 0x0 REVERT JUMPDEST POP POP POP POP PUSH1 0x40 MLOAD RETURNDATASIZE PUSH1 0x1F NOT PUSH1 0x1F DUP3 ADD AND DUP3 ADD DUP1 PUSH1 0x40 MSTORE POP DUP2 ADD SWAP1 PUSH2 0x95D SWAP2 SWAP1 PUSH2 0xF02 JUMP JUMPDEST SWAP1 POP SWAP3 SWAP2 POP POP JUMP JUMPDEST PUSH1 0x0 DUP1 SLOAD SWAP1 PUSH2 0x100 EXP SWAP1 DIV PUSH20 0xFFFFFFFFFFFFFFFFFFFFFFFFFFFFFFFFFFFFFFFF AND PUSH20 0xFFFFFFFFFFFFFFFFFFFFFFFFFFFFFFFFFFFFFFFF AND CALLER PUSH20 0xFFFFFFFFFFFFFFFFFFFFFFFFFFFFFFFFFFFFFFFF AND EQ PUSH2 0x9F3 JUMPI PUSH1 0x40 MLOAD PUSH32 0x8C379A000000000000000000000000000000000000000000000000000000000 DUP2 MSTORE PUSH1 0x4 ADD PUSH2 0x9EA SWAP1 PUSH2 0x141C JUMP JUMPDEST PUSH1 0x40 MLOAD DUP1 SWAP2 SUB SWAP1 REVERT JUMPDEST PUSH1 0x0 PUSH1 0x40 MLOAD DUP1 PUSH1 0xA0 ADD PUSH1 0x40 MSTORE DUP1 DUP8 DUP2 MSTORE PUSH1 0x20 ADD DUP7 PUSH16 0xFFFFFFFFFFFFFFFFFFFFFFFFFFFFFFFF AND DUP2 MSTORE PUSH1 0x20 ADD DUP6 DUP2 MSTORE PUSH1 0x20 ADD DUP5 DUP2 MSTORE PUSH1 0x20 ADD DUP4 DUP2 MSTORE POP SWAP1 POP PUSH1 0x2 PUSH1 0x0 SWAP1 SLOAD SWAP1 PUSH2 0x100 EXP SWAP1 DIV PUSH20 0xFFFFFFFFFFFFFFFFFFFFFFFFFFFFFFFFFFFFFFFF AND PUSH20 0xFFFFFFFFFFFFFFFFFFFFFFFFFFFFFFFFFFFFFFFF AND PUSH4 0xC49CCBE DUP3 PUSH1 0x40 MLOAD DUP3 PUSH4 0xFFFFFFFF AND PUSH1 0xE0 SHL DUP2 MSTORE PUSH1 0x4 ADD PUSH2 0xA8B SWAP2 SWAP1 PUSH2 0x1457 JUMP JUMPDEST PUSH1 0x40 DUP1 MLOAD DUP1 DUP4 SUB DUP2 PUSH1 0x0 DUP8 DUP1 EXTCODESIZE ISZERO DUP1 ISZERO PUSH2 0xAA4 JUMPI PUSH1 0x0 DUP1 REVERT JUMPDEST POP GAS CALL ISZERO DUP1 ISZERO PUSH2 0xAB8 JUMPI RETURNDATASIZE PUSH1 0x0 DUP1 RETURNDATACOPY RETURNDATASIZE PUSH1 0x0 REVERT JUMPDEST POP POP POP POP PUSH1 0x40 MLOAD RETURNDATASIZE PUSH1 0x1F NOT PUSH1 0x1F DUP3 ADD AND DUP3 ADD DUP1 PUSH1 0x40 MSTORE POP DUP2 ADD SWAP1 PUSH2 0xADC SWAP2 SWAP1 PUSH2 0x1091 JUMP JUMPDEST POP POP POP POP POP POP POP POP JUMP JUMPDEST PUSH1 0x0 DUP1 SLOAD SWAP1 PUSH2 0x100 EXP SWAP1 DIV PUSH20 0xFFFFFFFFFFFFFFFFFFFFFFFFFFFFFFFFFFFFFFFF AND PUSH20 0xFFFFFFFFFFFFFFFFFFFFFFFFFFFFFFFFFFFFFFFF AND CALLER PUSH20 0xFFFFFFFFFFFFFFFFFFFFFFFFFFFFFFFFFFFFFFFF AND EQ PUSH2 0xB74 JUMPI PUSH1 0x40 MLOAD PUSH32 0x8C379A000000000000000000000000000000000000000000000000000000000 DUP2 MSTORE PUSH1 0x4 ADD PUSH2 0xB6B SWAP1 PUSH2 0x141C JUMP JUMPDEST PUSH1 0x40 MLOAD DUP1 SWAP2 SUB SWAP1 REVERT JUMPDEST PUSH1 0x0 PUSH1 0x40 MLOAD DUP1 PUSH1 0x80 ADD PUSH1 0x40 MSTORE DUP1 DUP7 DUP2 MSTORE PUSH1 0x20 ADD DUP4 PUSH20 0xFFFFFFFFFFFFFFFFFFFFFFFFFFFFFFFFFFFFFFFF AND DUP2 MSTORE PUSH1 0x20 ADD DUP6 PUSH16 0xFFFFFFFFFFFFFFFFFFFFFFFFFFFFFFFF AND DUP2 MSTORE PUSH1 0x20 ADD DUP5 PUSH16 0xFFFFFFFFFFFFFFFFFFFFFFFFFFFFFFFF AND DUP2 MSTORE POP SWAP1 POP PUSH1 0x2 PUSH1 0x0 SWAP1 SLOAD SWAP1 PUSH2 0x100 EXP SWAP1 DIV PUSH20 0xFFFFFFFFFFFFFFFFFFFFFFFFFFFFFFFFFFFFFFFF AND PUSH20 0xFFFFFFFFFFFFFFFFFFFFFFFFFFFFFFFFFFFFFFFF AND PUSH4 0xFC6F7865 DUP3 PUSH1 0x40 MLOAD DUP3 PUSH4 0xFFFFFFFF AND PUSH1 0xE0 SHL DUP2 MSTORE PUSH1 0x4 ADD PUSH2 0xC2E SWAP2 SWAP1 PUSH2 0x143C JUMP JUMPDEST PUSH1 0x40 DUP1 MLOAD DUP1 DUP4 SUB DUP2 PUSH1 0x0 DUP8 DUP1 EXTCODESIZE ISZERO DUP1 ISZERO PUSH2 0xC47 JUMPI PUSH1 0x0 DUP1 REVERT JUMPDEST POP GAS CALL ISZERO DUP1 ISZERO PUSH2 0xC5B JUMPI RETURNDATASIZE PUSH1 0x0 DUP1 RETURNDATACOPY RETURNDATASIZE PUSH1 0x0 REVERT JUMPDEST POP POP POP POP PUSH1 0x40 MLOAD RETURNDATASIZE PUSH1 0x1F NOT PUSH1 0x1F DUP3 ADD AND DUP3 ADD DUP1 PUSH1 0x40 MSTORE POP DUP2 ADD SWAP1 PUSH2 0xC7F SWAP2 SWAP1 PUSH2 0x1091 JUMP JUMPDEST POP POP POP POP POP POP POP JUMP JUMPDEST PUSH1 0x0 DUP2 PUSH20 0xFFFFFFFFFFFFFFFFFFFFFFFFFFFFFFFFFFFFFFFF AND PUSH4 0x70A08231 ADDRESS PUSH1 0x40 MLOAD DUP3 PUSH4 0xFFFFFFFF AND PUSH1 0xE0 SHL DUP2 MSTORE PUSH1 0x4 ADD PUSH2 0xCC3 SWAP2 SWAP1 PUSH2 0x1350 JUMP JUMPDEST PUSH1 0x20 PUSH1 0x40 MLOAD DUP1 DUP4 SUB DUP2 DUP7 DUP1 EXTCODESIZE ISZERO DUP1 ISZERO PUSH2 0xCDB JUMPI PUSH1 0x0 DUP1 REVERT JUMPDEST POP GAS STATICCALL ISZERO DUP1 ISZERO PUSH2 0xCEF JUMPI RETURNDATASIZE PUSH1 0x0 DUP1 RETURNDATACOPY RETURNDATASIZE PUSH1 0x0 REVERT JUMPDEST POP POP POP POP PUSH1 0x40 MLOAD RETURNDATASIZE PUSH1 0x1F NOT PUSH1 0x1F DUP3 ADD AND DUP3 ADD DUP1 PUSH1 0x40 MSTORE POP DUP2 ADD SWAP1 PUSH2 0xD13 SWAP2 SWAP1 PUSH2 0xF2B JUMP JUMPDEST SWAP1 POP SWAP2 SWAP1 POP JUMP JUMPDEST PUSH1 0x0 DUP2 CALLDATALOAD SWAP1 POP PUSH2 0xD29 DUP2 PUSH2 0x15B8 JUMP JUMPDEST SWAP3 SWAP2 POP POP JUMP JUMPDEST PUSH1 0x0 DUP2 MLOAD SWAP1 POP PUSH2 0xD3E DUP2 PUSH2 0x15CF JUMP JUMPDEST SWAP3 SWAP2 POP POP JUMP JUMPDEST PUSH1 0x0 DUP2 CALLDATALOAD SWAP1 POP PUSH2 0xD53 DUP2 PUSH2 0x15E6 JUMP JUMPDEST SWAP3 SWAP2 POP POP JUMP JUMPDEST PUSH1 0x0 DUP2 CALLDATALOAD SWAP1 POP PUSH2 0xD68 DUP2 PUSH2 0x15FD JUMP JUMPDEST SWAP3 SWAP2 POP POP JUMP JUMPDEST PUSH1 0x0 DUP2 MLOAD SWAP1 POP PUSH2 0xD7D DUP2 PUSH2 0x15FD JUMP JUMPDEST SWAP3 SWAP2 POP POP JUMP JUMPDEST PUSH1 0x0 DUP2 CALLDATALOAD SWAP1 POP PUSH2 0xD92 DUP2 PUSH2 0x1614 JUMP JUMPDEST SWAP3 SWAP2 POP POP JUMP JUMPDEST PUSH1 0x0 DUP2 CALLDATALOAD SWAP1 POP PUSH2 0xDA7 DUP2 PUSH2 0x162B JUMP JUMPDEST SWAP3 SWAP2 POP POP JUMP JUMPDEST PUSH1 0x0 DUP2 MLOAD SWAP1 POP PUSH2 0xDBC DUP2 PUSH2 0x162B JUMP JUMPDEST SWAP3 SWAP2 POP POP JUMP JUMPDEST PUSH1 0x0 PUSH1 0x20 DUP3 DUP5 SUB SLT ISZERO PUSH2 0xDD4 JUMPI PUSH1 0x0 DUP1 REVERT JUMPDEST PUSH1 0x0 PUSH2 0xDE2 DUP5 DUP3 DUP6 ADD PUSH2 0xD1A JUMP JUMPDEST SWAP2 POP POP SWAP3 SWAP2 POP POP JUMP JUMPDEST PUSH1 0x0 DUP1 PUSH1 0x0 DUP1 PUSH1 0x0 DUP1 PUSH1 0x0 DUP1 PUSH1 0x0 DUP1 PUSH2 0x140 DUP12 DUP14 SUB SLT ISZERO PUSH2 0xE0B JUMPI PUSH1 0x0 DUP1 REVERT JUMPDEST PUSH1 0x0 PUSH2 0xE19 DUP14 DUP3 DUP15 ADD PUSH2 0xD1A JUMP JUMPDEST SWAP11 POP POP PUSH1 0x20 PUSH2 0xE2A DUP14 DUP3 DUP15 ADD PUSH2 0xD1A JUMP JUMPDEST SWAP10 POP POP PUSH1 0x40 PUSH2 0xE3B DUP14 DUP3 DUP15 ADD PUSH2 0xD83 JUMP JUMPDEST SWAP9 POP POP PUSH1 0x60 PUSH2 0xE4C DUP14 DUP3 DUP15 ADD PUSH2 0xD44 JUMP JUMPDEST SWAP8 POP POP PUSH1 0x80 PUSH2 0xE5D DUP14 DUP3 DUP15 ADD PUSH2 0xD44 JUMP JUMPDEST SWAP7 POP POP PUSH1 0xA0 PUSH2 0xE6E DUP14 DUP3 DUP15 ADD PUSH2 0xD98 JUMP JUMPDEST SWAP6 POP POP PUSH1 0xC0 PUSH2 0xE7F DUP14 DUP3 DUP15 ADD PUSH2 0xD98 JUMP JUMPDEST SWAP5 POP POP PUSH1 0xE0 PUSH2 0xE90 DUP14 DUP3 DUP15 ADD PUSH2 0xD98 JUMP JUMPDEST SWAP4 POP POP PUSH2 0x100 PUSH2 0xEA2 DUP14 DUP3 DUP15 ADD PUSH2 0xD98 JUMP JUMPDEST SWAP3 POP POP PUSH2 0x120 PUSH2 0xEB4 DUP14 DUP3 DUP15 ADD PUSH2 0xD98 JUMP JUMPDEST SWAP2 POP POP SWAP3 SWAP6 SWAP9 SWAP12 SWAP2 SWAP5 SWAP8 SWAP11 POP SWAP3 SWAP6 SWAP9 POP JUMP JUMPDEST PUSH1 0x0 DUP1 PUSH1 0x40 DUP4 DUP6 SUB SLT ISZERO PUSH2 0xED9 JUMPI PUSH1 0x0 DUP1 REVERT JUMPDEST PUSH1 0x0 PUSH2 0xEE7 DUP6 DUP3 DUP7 ADD PUSH2 0xD1A JUMP JUMPDEST SWAP3 POP POP PUSH1 0x20 PUSH2 0xEF8 DUP6 DUP3 DUP7 ADD PUSH2 0xD98 JUMP JUMPDEST SWAP2 POP POP SWAP3 POP SWAP3 SWAP1 POP JUMP JUMPDEST PUSH1 0x0 PUSH1 0x20 DUP3 DUP5 SUB SLT ISZERO PUSH2 0xF14 JUMPI PUSH1 0x0 DUP1 REVERT JUMPDEST PUSH1 0x0 PUSH2 0xF22 DUP5 DUP3 DUP6 ADD PUSH2 0xD2F JUMP JUMPDEST SWAP2 POP POP SWAP3 SWAP2 POP POP JUMP JUMPDEST PUSH1 0x0 PUSH1 0x20 DUP3 DUP5 SUB SLT ISZERO PUSH2 0xF3D JUMPI PUSH1 0x0 DUP1 REVERT JUMPDEST PUSH1 0x0 PUSH2 0xF4B DUP5 DUP3 DUP6 ADD PUSH2 0xDAD JUMP JUMPDEST SWAP2 POP POP SWAP3 SWAP2 POP POP JUMP JUMPDEST PUSH1 0x0 DUP1 PUSH1 0x0 DUP1 PUSH1 0x80 DUP6 DUP8 SUB SLT ISZERO PUSH2 0xF6A JUMPI PUSH1 0x0 DUP1 REVERT JUMPDEST PUSH1 0x0 PUSH2 0xF78 DUP8 DUP3 DUP9 ADD PUSH2 0xD98 JUMP JUMPDEST SWAP5 POP POP PUSH1 0x20 PUSH2 0xF89 DUP8 DUP3 DUP9 ADD PUSH2 0xD59 JUMP JUMPDEST SWAP4 POP POP PUSH1 0x40 PUSH2 0xF9A DUP8 DUP3 DUP9 ADD PUSH2 0xD59 JUMP JUMPDEST SWAP3 POP POP PUSH1 0x60 PUSH2 0xFAB DUP8 DUP3 DUP9 ADD PUSH2 0xD1A JUMP JUMPDEST SWAP2 POP POP SWAP3 SWAP6 SWAP2 SWAP5 POP SWAP3 POP JUMP JUMPDEST PUSH1 0x0 DUP1 PUSH1 0x0 DUP1 PUSH1 0x80 DUP6 DUP8 SUB SLT ISZERO PUSH2 0xFCD JUMPI PUSH1 0x0 DUP1 REVERT JUMPDEST PUSH1 0x0 PUSH2 0xFDB DUP8 DUP3 DUP9 ADD PUSH2 0xDAD JUMP JUMPDEST SWAP5 POP POP PUSH1 0x20 PUSH2 0xFEC DUP8 DUP3 DUP9 ADD PUSH2 0xD6E JUMP JUMPDEST SWAP4 POP POP PUSH1 0x40 PUSH2 0xFFD DUP8 DUP3 DUP9 ADD PUSH2 0xDAD JUMP JUMPDEST SWAP3 POP POP PUSH1 0x60 PUSH2 0x100E DUP8 DUP3 DUP9 ADD PUSH2 0xDAD JUMP JUMPDEST SWAP2 POP POP SWAP3 SWAP6 SWAP2 SWAP5 POP SWAP3 POP JUMP JUMPDEST PUSH1 0x0 DUP1 PUSH1 0x0 DUP1 PUSH1 0x0 PUSH1 0xA0 DUP7 DUP9 SUB SLT ISZERO PUSH2 0x1032 JUMPI PUSH1 0x0 DUP1 REVERT JUMPDEST PUSH1 0x0 PUSH2 0x1040 DUP9 DUP3 DUP10 ADD PUSH2 0xD98 JUMP JUMPDEST SWAP6 POP POP PUSH1 0x20 PUSH2 0x1051 DUP9 DUP3 DUP10 ADD PUSH2 0xD59 JUMP JUMPDEST SWAP5 POP POP PUSH1 0x40 PUSH2 0x1062 DUP9 DUP3 DUP10 ADD PUSH2 0xD98 JUMP JUMPDEST SWAP4 POP POP PUSH1 0x60 PUSH2 0x1073 DUP9 DUP3 DUP10 ADD PUSH2 0xD98 JUMP JUMPDEST SWAP3 POP POP PUSH1 0x80 PUSH2 0x1084 DUP9 DUP3 DUP10 ADD PUSH2 0xD98 JUMP JUMPDEST SWAP2 POP POP SWAP3 SWAP6 POP SWAP3 SWAP6 SWAP1 SWAP4 POP JUMP JUMPDEST PUSH1 0x0 DUP1 PUSH1 0x40 DUP4 DUP6 SUB SLT ISZERO PUSH2 0x10A4 JUMPI PUSH1 0x0 DUP1 REVERT JUMPDEST PUSH1 0x0 PUSH2 0x10B2 DUP6 DUP3 DUP7 ADD PUSH2 0xDAD JUMP JUMPDEST SWAP3 POP POP PUSH1 0x20 PUSH2 0x10C3 DUP6 DUP3 DUP7 ADD PUSH2 0xDAD JUMP JUMPDEST SWAP2 POP POP SWAP3 POP SWAP3 SWAP1 POP JUMP JUMPDEST PUSH2 0x10D6 DUP2 PUSH2 0x153A JUMP JUMPDEST DUP3 MSTORE POP POP JUMP JUMPDEST PUSH2 0x10E5 DUP2 PUSH2 0x14BA JUMP JUMPDEST DUP3 MSTORE POP POP JUMP JUMPDEST PUSH2 0x10F4 DUP2 PUSH2 0x14BA JUMP JUMPDEST DUP3 MSTORE POP POP JUMP JUMPDEST PUSH2 0x1103 DUP2 PUSH2 0x14CC JUMP JUMPDEST DUP3 MSTORE POP POP JUMP JUMPDEST PUSH2 0x1112 DUP2 PUSH2 0x154C JUMP JUMPDEST DUP3 MSTORE POP POP JUMP JUMPDEST PUSH2 0x1121 DUP2 PUSH2 0x1570 JUMP JUMPDEST DUP3 MSTORE POP POP JUMP JUMPDEST PUSH2 0x1130 DUP2 PUSH2 0x14D8 JUMP JUMPDEST DUP3 MSTORE POP POP JUMP JUMPDEST PUSH1 0x0 PUSH2 0x1143 PUSH1 0x16 DUP4 PUSH2 0x14A9 JUMP JUMPDEST SWAP2 POP PUSH32 0x4E6F742074686520636F6E7472616374206F776E657200000000000000000000 PUSH1 0x0 DUP4 ADD MSTORE PUSH1 0x20 DUP3 ADD SWAP1 POP SWAP2 SWAP1 POP JUMP JUMPDEST PUSH1 0x80 DUP3 ADD PUSH1 0x0 DUP3 ADD MLOAD PUSH2 0x118C PUSH1 0x0 DUP6 ADD DUP3 PUSH2 0x1332 JUMP JUMPDEST POP PUSH1 0x20 DUP3 ADD MLOAD PUSH2 0x119F PUSH1 0x20 DUP6 ADD DUP3 PUSH2 0x10DC JUMP JUMPDEST POP PUSH1 0x40 DUP3 ADD MLOAD PUSH2 0x11B2 PUSH1 0x40 DUP6 ADD DUP3 PUSH2 0x1314 JUMP JUMPDEST POP PUSH1 0x60 DUP3 ADD MLOAD PUSH2 0x11C5 PUSH1 0x60 DUP6 ADD DUP3 PUSH2 0x1314 JUMP JUMPDEST POP POP POP POP JUMP JUMPDEST PUSH1 0xA0 DUP3 ADD PUSH1 0x0 DUP3 ADD MLOAD PUSH2 0x11E1 PUSH1 0x0 DUP6 ADD DUP3 PUSH2 0x1332 JUMP JUMPDEST POP PUSH1 0x20 DUP3 ADD MLOAD PUSH2 0x11F4 PUSH1 0x20 DUP6 ADD DUP3 PUSH2 0x1314 JUMP JUMPDEST POP PUSH1 0x40 DUP3 ADD MLOAD PUSH2 0x1207 PUSH1 0x40 DUP6 ADD DUP3 PUSH2 0x1332 JUMP JUMPDEST POP PUSH1 0x60 DUP3 ADD MLOAD PUSH2 0x121A PUSH1 0x60 DUP6 ADD DUP3 PUSH2 0x1332 JUMP JUMPDEST POP PUSH1 0x80 DUP3 ADD MLOAD PUSH2 0x122D PUSH1 0x80 DUP6 ADD DUP3 PUSH2 0x1332 JUMP JUMPDEST POP POP POP POP JUMP JUMPDEST PUSH2 0x160 DUP3 ADD PUSH1 0x0 DUP3 ADD MLOAD PUSH2 0x124A PUSH1 0x0 DUP6 ADD DUP3 PUSH2 0x10DC JUMP JUMPDEST POP PUSH1 0x20 DUP3 ADD MLOAD PUSH2 0x125D PUSH1 0x20 DUP6 ADD DUP3 PUSH2 0x10DC JUMP JUMPDEST POP PUSH1 0x40 DUP3 ADD MLOAD PUSH2 0x1270 PUSH1 0x40 DUP6 ADD DUP3 PUSH2 0x1323 JUMP JUMPDEST POP PUSH1 0x60 DUP3 ADD MLOAD PUSH2 0x1283 PUSH1 0x60 DUP6 ADD DUP3 PUSH2 0x1127 JUMP JUMPDEST POP PUSH1 0x80 DUP3 ADD MLOAD PUSH2 0x1296 PUSH1 0x80 DUP6 ADD DUP3 PUSH2 0x1127 JUMP JUMPDEST POP PUSH1 0xA0 DUP3 ADD MLOAD PUSH2 0x12A9 PUSH1 0xA0 DUP6 ADD DUP3 PUSH2 0x1332 JUMP JUMPDEST POP PUSH1 0xC0 DUP3 ADD MLOAD PUSH2 0x12BC PUSH1 0xC0 DUP6 ADD DUP3 PUSH2 0x1332 JUMP JUMPDEST POP PUSH1 0xE0 DUP3 ADD MLOAD PUSH2 0x12CF PUSH1 0xE0 DUP6 ADD DUP3 PUSH2 0x1332 JUMP JUMPDEST POP PUSH2 0x100 DUP3 ADD MLOAD PUSH2 0x12E4 PUSH2 0x100 DUP6 ADD DUP3 PUSH2 0x1332 JUMP JUMPDEST POP PUSH2 0x120 DUP3 ADD MLOAD PUSH2 0x12F9 PUSH2 0x120 DUP6 ADD DUP3 PUSH2 0x10DC JUMP JUMPDEST POP PUSH2 0x140 DUP3 ADD MLOAD PUSH2 0x130E PUSH2 0x140 DUP6 ADD DUP3 PUSH2 0x1332 JUMP JUMPDEST POP POP POP POP JUMP JUMPDEST PUSH2 0x131D DUP2 PUSH2 0x14E5 JUMP JUMPDEST DUP3 MSTORE POP POP JUMP JUMPDEST PUSH2 0x132C DUP2 PUSH2 0x1521 JUMP JUMPDEST DUP3 MSTORE POP POP JUMP JUMPDEST PUSH2 0x133B DUP2 PUSH2 0x1530 JUMP JUMPDEST DUP3 MSTORE POP POP JUMP JUMPDEST PUSH2 0x134A DUP2 PUSH2 0x1530 JUMP JUMPDEST DUP3 MSTORE POP POP JUMP JUMPDEST PUSH1 0x0 PUSH1 0x20 DUP3 ADD SWAP1 POP PUSH2 0x1365 PUSH1 0x0 DUP4 ADD DUP5 PUSH2 0x10EB JUMP JUMPDEST SWAP3 SWAP2 POP POP JUMP JUMPDEST PUSH1 0x0 PUSH1 0x60 DUP3 ADD SWAP1 POP PUSH2 0x1380 PUSH1 0x0 DUP4 ADD DUP7 PUSH2 0x10CD JUMP JUMPDEST PUSH2 0x138D PUSH1 0x20 DUP4 ADD DUP6 PUSH2 0x10EB JUMP JUMPDEST PUSH2 0x139A PUSH1 0x40 DUP4 ADD DUP5 PUSH2 0x1341 JUMP JUMPDEST SWAP5 SWAP4 POP POP POP POP JUMP JUMPDEST PUSH1 0x0 PUSH1 0x40 DUP3 ADD SWAP1 POP PUSH2 0x13B7 PUSH1 0x0 DUP4 ADD DUP6 PUSH2 0x10EB JUMP JUMPDEST PUSH2 0x13C4 PUSH1 0x20 DUP4 ADD DUP5 PUSH2 0x1341 JUMP JUMPDEST SWAP4 SWAP3 POP POP POP JUMP JUMPDEST PUSH1 0x0 PUSH1 0x20 DUP3 ADD SWAP1 POP PUSH2 0x13E0 PUSH1 0x0 DUP4 ADD DUP5 PUSH2 0x10FA JUMP JUMPDEST SWAP3 SWAP2 POP POP JUMP JUMPDEST PUSH1 0x0 PUSH1 0x20 DUP3 ADD SWAP1 POP PUSH2 0x13FB PUSH1 0x0 DUP4 ADD DUP5 PUSH2 0x1109 JUMP JUMPDEST SWAP3 SWAP2 POP POP JUMP JUMPDEST PUSH1 0x0 PUSH1 0x20 DUP3 ADD SWAP1 POP PUSH2 0x1416 PUSH1 0x0 DUP4 ADD DUP5 PUSH2 0x1118 JUMP JUMPDEST SWAP3 SWAP2 POP POP JUMP JUMPDEST PUSH1 0x0 PUSH1 0x20 DUP3 ADD SWAP1 POP DUP2 DUP2 SUB PUSH1 0x0 DUP4 ADD MSTORE PUSH2 0x1435 DUP2 PUSH2 0x1136 JUMP JUMPDEST SWAP1 POP SWAP2 SWAP1 POP JUMP JUMPDEST PUSH1 0x0 PUSH1 0x80 DUP3 ADD SWAP1 POP PUSH2 0x1451 PUSH1 0x0 DUP4 ADD DUP5 PUSH2 0x1176 JUMP JUMPDEST SWAP3 SWAP2 POP POP JUMP JUMPDEST PUSH1 0x0 PUSH1 0xA0 DUP3 ADD SWAP1 POP PUSH2 0x146C PUSH1 0x0 DUP4 ADD DUP5 PUSH2 0x11CB JUMP JUMPDEST SWAP3 SWAP2 POP POP JUMP JUMPDEST PUSH1 0x0 PUSH2 0x160 DUP3 ADD SWAP1 POP PUSH2 0x1488 PUSH1 0x0 DUP4 ADD DUP5 PUSH2 0x1233 JUMP JUMPDEST SWAP3 SWAP2 POP POP JUMP JUMPDEST PUSH1 0x0 PUSH1 0x20 DUP3 ADD SWAP1 POP PUSH2 0x14A3 PUSH1 0x0 DUP4 ADD DUP5 PUSH2 0x1341 JUMP JUMPDEST SWAP3 SWAP2 POP POP JUMP JUMPDEST PUSH1 0x0 DUP3 DUP3 MSTORE PUSH1 0x20 DUP3 ADD SWAP1 POP SWAP3 SWAP2 POP POP JUMP JUMPDEST PUSH1 0x0 PUSH2 0x14C5 DUP3 PUSH2 0x1501 JUMP JUMPDEST SWAP1 POP SWAP2 SWAP1 POP JUMP JUMPDEST PUSH1 0x0 DUP2 ISZERO ISZERO SWAP1 POP SWAP2 SWAP1 POP JUMP JUMPDEST PUSH1 0x0 DUP2 PUSH1 0x2 SIGNEXTEND SWAP1 POP SWAP2 SWAP1 POP JUMP JUMPDEST PUSH1 0x0 PUSH16 0xFFFFFFFFFFFFFFFFFFFFFFFFFFFFFFFF DUP3 AND SWAP1 POP SWAP2 SWAP1 POP JUMP JUMPDEST PUSH1 0x0 PUSH20 0xFFFFFFFFFFFFFFFFFFFFFFFFFFFFFFFFFFFFFFFF DUP3 AND SWAP1 POP SWAP2 SWAP1 POP JUMP JUMPDEST PUSH1 0x0 PUSH3 0xFFFFFF DUP3 AND SWAP1 POP SWAP2 SWAP1 POP JUMP JUMPDEST PUSH1 0x0 DUP2 SWAP1 POP SWAP2 SWAP1 POP JUMP JUMPDEST PUSH1 0x0 PUSH2 0x1545 DUP3 PUSH2 0x1594 JUMP JUMPDEST SWAP1 POP SWAP2 SWAP1 POP JUMP JUMPDEST PUSH1 0x0 PUSH2 0x1557 DUP3 PUSH2 0x155E JUMP JUMPDEST SWAP1 POP SWAP2 SWAP1 POP JUMP JUMPDEST PUSH1 0x0 PUSH2 0x1569 DUP3 PUSH2 0x1501 JUMP JUMPDEST SWAP1 POP SWAP2 SWAP1 POP JUMP JUMPDEST PUSH1 0x0 PUSH2 0x157B DUP3 PUSH2 0x1582 JUMP JUMPDEST SWAP1 POP SWAP2 SWAP1 POP JUMP JUMPDEST PUSH1 0x0 PUSH2 0x158D DUP3 PUSH2 0x1501 JUMP JUMPDEST SWAP1 POP SWAP2 SWAP1 POP JUMP JUMPDEST PUSH1 0x0 PUSH2 0x159F DUP3 PUSH2 0x15A6 JUMP JUMPDEST SWAP1 POP SWAP2 SWAP1 POP JUMP JUMPDEST PUSH1 0x0 PUSH2 0x15B1 DUP3 PUSH2 0x1501 JUMP JUMPDEST SWAP1 POP SWAP2 SWAP1 POP JUMP JUMPDEST PUSH2 0x15C1 DUP2 PUSH2 0x14BA JUMP JUMPDEST DUP2 EQ PUSH2 0x15CC JUMPI PUSH1 0x0 DUP1 REVERT JUMPDEST POP JUMP JUMPDEST PUSH2 0x15D8 DUP2 PUSH2 0x14CC JUMP JUMPDEST DUP2 EQ PUSH2 0x15E3 JUMPI PUSH1 0x0 DUP1 REVERT JUMPDEST POP JUMP JUMPDEST PUSH2 0x15EF DUP2 PUSH2 0x14D8 JUMP JUMPDEST DUP2 EQ PUSH2 0x15FA JUMPI PUSH1 0x0 DUP1 REVERT JUMPDEST POP JUMP JUMPDEST PUSH2 0x1606 DUP2 PUSH2 0x14E5 JUMP JUMPDEST DUP2 EQ PUSH2 0x1611 JUMPI PUSH1 0x0 DUP1 REVERT JUMPDEST POP JUMP JUMPDEST PUSH2 0x161D DUP2 PUSH2 0x1521 JUMP JUMPDEST DUP2 EQ PUSH2 0x1628 JUMPI PUSH1 0x0 DUP1 REVERT JUMPDEST POP JUMP JUMPDEST PUSH2 0x1634 DUP2 PUSH2 0x1530 JUMP JUMPDEST DUP2 EQ PUSH2 0x163F JUMPI PUSH1 0x0 DUP1 REVERT JUMPDEST POP JUMP INVALID LOG2 PUSH5 0x6970667358 0x22 SLT KECCAK256 ORIGIN CALLER CALLCODE 0xDB BLOCKHASH RETURN 0xD TIMESTAMP CREATE2 SELFBALANCE DUP8 0xC6 PUSH28 0x390A45857C4CAC1EB8456D77787075C188CC5664736F6C6343000706 STOP CALLER "},"methodIdentifiers":{"balance(address)":"e3d670d7","collectTokens(uint256,uint128,uint128,address)":"b1a573c2","owner()":"8da5cb5b","positionManager()":"791b98bc","provideLiquidity(address,address,uint24,int24,int24,uint256,uint256,uint256,uint256,uint256)":"88d5f81e","removeLiquidity(uint256,uint128,uint256,uint256,uint256)":"a2416f74","rescueTokens(address,uint256)":"57376198","transferTokenAToContract(address,uint256)":"a0bf2fec","transferTokenBToContract(address,uint256)":"9b93710e","uniswapRouter()":"735de9f7"}}}}}