{
  "_format": "hh-sol-artifact-1",
  "contractName": "LiquidityProvider",
  "sourceName": "contracts/LiquidityProvider.sol",
  "abi": [
    {
      "inputs": [
        {
          "internalType": "address",
          "name": "_uniswapRouterAddress",
          "type": "address"
        },
        {
          "internalType": "address",
          "name": "_positionManagerAddress",
          "type": "address"
        }
      ],
      "stateMutability": "nonpayable",
      "type": "constructor"
    },
    {
      "inputs": [
        {
          "internalType": "address",
          "name": "tokenAddress",
          "type": "address"
        }
      ],
      "name": "balance",
      "outputs": [
        {
          "internalType": "uint256",
          "name": "",
          "type": "uint256"
        }
      ],
      "stateMutability": "view",
      "type": "function"
    },
    {
      "inputs": [
        {
          "internalType": "uint256",
          "name": "tokenId",
          "type": "uint256"
        },
        {
          "internalType": "uint128",
          "name": "amount0Max",
          "type": "uint128"
        },
        {
          "internalType": "uint128",
          "name": "amount1Max",
          "type": "uint128"
        },
        {
          "internalType": "address",
          "name": "recipient",
          "type": "address"
        }
      ],
      "name": "collectTokens",
      "outputs": [],
      "stateMutability": "nonpayable",
      "type": "function"
    },
    {
      "inputs": [],
      "name": "owner",
      "outputs": [
        {
          "internalType": "address",
          "name": "",
          "type": "address"
        }
      ],
      "stateMutability": "view",
      "type": "function"
    },
    {
      "inputs": [],
      "name": "positionManager",
      "outputs": [
        {
          "internalType": "contract INonfungiblePositionManager",
          "name": "",
          "type": "address"
        }
      ],
      "stateMutability": "view",
      "type": "function"
    },
    {
      "inputs": [
        {
          "internalType": "address",
          "name": "tokenA",
          "type": "address"
        },
        {
          "internalType": "address",
          "name": "tokenB",
          "type": "address"
        },
        {
          "internalType": "uint24",
          "name": "fee",
          "type": "uint24"
        },
        {
          "internalType": "int24",
          "name": "tickLower",
          "type": "int24"
        },
        {
          "internalType": "int24",
          "name": "tickUpper",
          "type": "int24"
        },
        {
          "internalType": "uint256",
          "name": "amountADesired",
          "type": "uint256"
        },
        {
          "internalType": "uint256",
          "name": "amountBDesired",
          "type": "uint256"
        },
        {
          "internalType": "uint256",
          "name": "amountAMin",
          "type": "uint256"
        },
        {
          "internalType": "uint256",
          "name": "amountBMin",
          "type": "uint256"
        },
        {
          "internalType": "uint256",
          "name": "deadline",
          "type": "uint256"
        }
      ],
      "name": "provideLiquidity",
      "outputs": [
        {
          "internalType": "uint256",
          "name": "tokenId",
          "type": "uint256"
        }
      ],
      "stateMutability": "nonpayable",
      "type": "function"
    },
    {
      "inputs": [
        {
          "internalType": "uint256",
          "name": "tokenId",
          "type": "uint256"
        },
        {
          "internalType": "uint128",
          "name": "liquidity",
          "type": "uint128"
        },
        {
          "internalType": "uint256",
          "name": "amount0Min",
          "type": "uint256"
        },
        {
          "internalType": "uint256",
          "name": "amount1Min",
          "type": "uint256"
        },
        {
          "internalType": "uint256",
          "name": "deadline",
          "type": "uint256"
        }
      ],
      "name": "removeLiquidity",
      "outputs": [],
      "stateMutability": "nonpayable",
      "type": "function"
    },
    {
      "inputs": [
        {
          "internalType": "address",
          "name": "token",
          "type": "address"
        },
        {
          "internalType": "uint256",
          "name": "amount",
          "type": "uint256"
        }
      ],
      "name": "rescueTokens",
      "outputs": [],
      "stateMutability": "nonpayable",
      "type": "function"
    },
    {
      "inputs": [
        {
          "internalType": "address",
          "name": "tokenAAddress",
          "type": "address"
        },
        {
          "internalType": "uint256",
          "name": "amount",
          "type": "uint256"
        }
      ],
      "name": "transferTokenAToContract",
      "outputs": [
        {
          "internalType": "bool",
          "name": "",
          "type": "bool"
        }
      ],
      "stateMutability": "nonpayable",
      "type": "function"
    },
    {
      "inputs": [
        {
          "internalType": "address",
          "name": "tokenBAddress",
          "type": "address"
        },
        {
          "internalType": "uint256",
          "name": "amount",
          "type": "uint256"
        }
      ],
      "name": "transferTokenBToContract",
      "outputs": [
        {
          "internalType": "bool",
          "name": "",
          "type": "bool"
        }
      ],
      "stateMutability": "nonpayable",
      "type": "function"
    },
    {
      "inputs": [],
      "name": "uniswapRouter",
      "outputs": [
        {
          "internalType": "contract ISwapRouter",
          "name": "",
          "type": "address"
        }
      ],
      "stateMutability": "view",
      "type": "function"
    }
  ],
  "bytecode": "0x60806040523480156200001157600080fd5b50604051620017a0380380620017a0833981810160405281019062000037919062000118565b336000806101000a81548173ffffffffffffffffffffffffffffffffffffffff021916908373ffffffffffffffffffffffffffffffffffffffff16021790555081600160006101000a81548173ffffffffffffffffffffffffffffffffffffffff021916908373ffffffffffffffffffffffffffffffffffffffff16021790555080600260006101000a81548173ffffffffffffffffffffffffffffffffffffffff021916908373ffffffffffffffffffffffffffffffffffffffff1602179055505050620001a7565b60008151905062000112816200018d565b92915050565b600080604083850312156200012c57600080fd5b60006200013c8582860162000101565b92505060206200014f8582860162000101565b9150509250929050565b600062000166826200016d565b9050919050565b600073ffffffffffffffffffffffffffffffffffffffff82169050919050565b620001988162000159565b8114620001a457600080fd5b50565b6115e980620001b76000396000f3fe608060405234801561001057600080fd5b506004361061009e5760003560e01c80639b93710e116100665780639b93710e14610149578063a0bf2fec14610179578063a2416f74146101a9578063b1a573c2146101c5578063e3d670d7146101e15761009e565b806357376198146100a3578063735de9f7146100bf578063791b98bc146100dd57806388d5f81e146100fb5780638da5cb5b1461012b575b600080fd5b6100bd60048036038101906100b89190610e37565b610211565b005b6100c7610351565b6040516100d49190611372565b60405180910390f35b6100e5610377565b6040516100f29190611357565b60405180910390f35b61011560048036038101906101109190610d5c565b61039d565b60405161012291906113ff565b60405180910390f35b610133610662565b60405161014091906112c1565b60405180910390f35b610163600480360381019061015e9190610e37565b610686565b604051610170919061133c565b60405180910390f35b610193600480360381019061018e9190610e37565b6107ae565b6040516101a0919061133c565b60405180910390f35b6101c360048036038101906101be9190610f8b565b6108d6565b005b6101df60048036038101906101da9190610ec5565b610a57565b005b6101fb60048036038101906101f69190610d33565b610bf9565b60405161020891906113ff565b60405180910390f35b60008054906101000a900473ffffffffffffffffffffffffffffffffffffffff1673ffffffffffffffffffffffffffffffffffffffff163373ffffffffffffffffffffffffffffffffffffffff161461029f576040517f08c379a00000000000000000000000000000000000000000000000000000000081526004016102969061138d565b60405180910390fd5b8173ffffffffffffffffffffffffffffffffffffffff1663a9059cbb60008054906101000a900473ffffffffffffffffffffffffffffffffffffffff16836040518363ffffffff1660e01b81526004016102fa929190611313565b602060405180830381600087803b15801561031457600080fd5b505af1158015610328573d6000803e3d6000fd5b505050506040513d601f19601f8201168201806040525081019061034c9190610e73565b505050565b600160009054906101000a900473ffffffffffffffffffffffffffffffffffffffff1681565b600260009054906101000a900473ffffffffffffffffffffffffffffffffffffffff1681565b60008a73ffffffffffffffffffffffffffffffffffffffff1663095ea7b3600260009054906101000a900473ffffffffffffffffffffffffffffffffffffffff16886040518363ffffffff1660e01b81526004016103fc929190611313565b602060405180830381600087803b15801561041657600080fd5b505af115801561042a573d6000803e3d6000fd5b505050506040513d601f19601f8201168201806040525081019061044e9190610e73565b508973ffffffffffffffffffffffffffffffffffffffff1663095ea7b3600260009054906101000a900473ffffffffffffffffffffffffffffffffffffffff16876040518363ffffffff1660e01b81526004016104ac929190611313565b602060405180830381600087803b1580156104c657600080fd5b505af11580156104da573d6000803e3d6000fd5b505050506040513d601f19601f820116820180604052508101906104fe9190610e73565b5060006040518061016001604052808d73ffffffffffffffffffffffffffffffffffffffff1681526020018c73ffffffffffffffffffffffffffffffffffffffff1681526020018b62ffffff1681526020018a60020b81526020018960020b81526020018881526020018781526020018681526020018581526020013073ffffffffffffffffffffffffffffffffffffffff168152602001848152509050600260009054906101000a900473ffffffffffffffffffffffffffffffffffffffff1673ffffffffffffffffffffffffffffffffffffffff166388316456826040518263ffffffff1660e01b81526004016105f791906113e3565b608060405180830381600087803b15801561061157600080fd5b505af1158015610625573d6000803e3d6000fd5b505050506040513d601f19601f820116820180604052508101906106499190610f28565b90915090505080925050509a9950505050505050505050565b60008054906101000a900473ffffffffffffffffffffffffffffffffffffffff1681565b60008060009054906101000a900473ffffffffffffffffffffffffffffffffffffffff1673ffffffffffffffffffffffffffffffffffffffff163373ffffffffffffffffffffffffffffffffffffffff1614610717576040517f08c379a000000000000000000000000000000000000000000000000000000000815260040161070e9061138d565b60405180910390fd5b8273ffffffffffffffffffffffffffffffffffffffff166323b872dd3330856040518463ffffffff1660e01b8152600401610754939291906112dc565b602060405180830381600087803b15801561076e57600080fd5b505af1158015610782573d6000803e3d6000fd5b505050506040513d601f19601f820116820180604052508101906107a69190610e73565b905092915050565b60008060009054906101000a900473ffffffffffffffffffffffffffffffffffffffff1673ffffffffffffffffffffffffffffffffffffffff163373ffffffffffffffffffffffffffffffffffffffff161461083f576040517f08c379a00000000000000000000000000000000000000000000000000000000081526004016108369061138d565b60405180910390fd5b8273ffffffffffffffffffffffffffffffffffffffff166323b872dd3330856040518463ffffffff1660e01b815260040161087c939291906112dc565b602060405180830381600087803b15801561089657600080fd5b505af11580156108aa573d6000803e3d6000fd5b505050506040513d601f19601f820116820180604052508101906108ce9190610e73565b905092915050565b60008054906101000a900473ffffffffffffffffffffffffffffffffffffffff1673ffffffffffffffffffffffffffffffffffffffff163373ffffffffffffffffffffffffffffffffffffffff1614610964576040517f08c379a000000000000000000000000000000000000000000000000000000000815260040161095b9061138d565b60405180910390fd5b60006040518060a00160405280878152602001866fffffffffffffffffffffffffffffffff168152602001858152602001848152602001838152509050600260009054906101000a900473ffffffffffffffffffffffffffffffffffffffff1673ffffffffffffffffffffffffffffffffffffffff16630c49ccbe826040518263ffffffff1660e01b81526004016109fc91906113c8565b6040805180830381600087803b158015610a1557600080fd5b505af1158015610a29573d6000803e3d6000fd5b505050506040513d601f19601f82011682018060405250810190610a4d9190611002565b5050505050505050565b60008054906101000a900473ffffffffffffffffffffffffffffffffffffffff1673ffffffffffffffffffffffffffffffffffffffff163373ffffffffffffffffffffffffffffffffffffffff1614610ae5576040517f08c379a0000000000000000000000000000000000000000000000000000000008152600401610adc9061138d565b60405180910390fd5b600060405180608001604052808681526020018373ffffffffffffffffffffffffffffffffffffffff168152602001856fffffffffffffffffffffffffffffffff168152602001846fffffffffffffffffffffffffffffffff168152509050600260009054906101000a900473ffffffffffffffffffffffffffffffffffffffff1673ffffffffffffffffffffffffffffffffffffffff1663fc6f7865826040518263ffffffff1660e01b8152600401610b9f91906113ad565b6040805180830381600087803b158015610bb857600080fd5b505af1158015610bcc573d6000803e3d6000fd5b505050506040513d601f19601f82011682018060405250810190610bf09190611002565b50505050505050565b60008173ffffffffffffffffffffffffffffffffffffffff166370a08231306040518263ffffffff1660e01b8152600401610c3491906112c1565b60206040518083038186803b158015610c4c57600080fd5b505afa158015610c60573d6000803e3d6000fd5b505050506040513d601f19601f82011682018060405250810190610c849190610e9c565b9050919050565b600081359050610c9a81611529565b92915050565b600081519050610caf81611540565b92915050565b600081359050610cc481611557565b92915050565b600081359050610cd98161156e565b92915050565b600081519050610cee8161156e565b92915050565b600081359050610d0381611585565b92915050565b600081359050610d188161159c565b92915050565b600081519050610d2d8161159c565b92915050565b600060208284031215610d4557600080fd5b6000610d5384828501610c8b565b91505092915050565b6000806000806000806000806000806101408b8d031215610d7c57600080fd5b6000610d8a8d828e01610c8b565b9a50506020610d9b8d828e01610c8b565b9950506040610dac8d828e01610cf4565b9850506060610dbd8d828e01610cb5565b9750506080610dce8d828e01610cb5565b96505060a0610ddf8d828e01610d09565b95505060c0610df08d828e01610d09565b94505060e0610e018d828e01610d09565b935050610100610e138d828e01610d09565b925050610120610e258d828e01610d09565b9150509295989b9194979a5092959850565b60008060408385031215610e4a57600080fd5b6000610e5885828601610c8b565b9250506020610e6985828601610d09565b9150509250929050565b600060208284031215610e8557600080fd5b6000610e9384828501610ca0565b91505092915050565b600060208284031215610eae57600080fd5b6000610ebc84828501610d1e565b91505092915050565b60008060008060808587031215610edb57600080fd5b6000610ee987828801610d09565b9450506020610efa87828801610cca565b9350506040610f0b87828801610cca565b9250506060610f1c87828801610c8b565b91505092959194509250565b60008060008060808587031215610f3e57600080fd5b6000610f4c87828801610d1e565b9450506020610f5d87828801610cdf565b9350506040610f6e87828801610d1e565b9250506060610f7f87828801610d1e565b91505092959194509250565b600080600080600060a08688031215610fa357600080fd5b6000610fb188828901610d09565b9550506020610fc288828901610cca565b9450506040610fd388828901610d09565b9350506060610fe488828901610d09565b9250506080610ff588828901610d09565b9150509295509295909350565b6000806040838503121561101557600080fd5b600061102385828601610d1e565b925050602061103485828601610d1e565b9150509250929050565b611047816114ab565b82525050565b6110568161142b565b82525050565b6110658161142b565b82525050565b6110748161143d565b82525050565b611083816114bd565b82525050565b611092816114e1565b82525050565b6110a181611449565b82525050565b60006110b460168361141a565b91507f4e6f742074686520636f6e7472616374206f776e6572000000000000000000006000830152602082019050919050565b6080820160008201516110fd60008501826112a3565b506020820151611110602085018261104d565b5060408201516111236040850182611285565b5060608201516111366060850182611285565b50505050565b60a08201600082015161115260008501826112a3565b5060208201516111656020850182611285565b50604082015161117860408501826112a3565b50606082015161118b60608501826112a3565b50608082015161119e60808501826112a3565b50505050565b610160820160008201516111bb600085018261104d565b5060208201516111ce602085018261104d565b5060408201516111e16040850182611294565b5060608201516111f46060850182611098565b5060808201516112076080850182611098565b5060a082015161121a60a08501826112a3565b5060c082015161122d60c08501826112a3565b5060e082015161124060e08501826112a3565b506101008201516112556101008501826112a3565b5061012082015161126a61012085018261104d565b5061014082015161127f6101408501826112a3565b50505050565b61128e81611456565b82525050565b61129d81611492565b82525050565b6112ac816114a1565b82525050565b6112bb816114a1565b82525050565b60006020820190506112d6600083018461105c565b92915050565b60006060820190506112f1600083018661103e565b6112fe602083018561105c565b61130b60408301846112b2565b949350505050565b6000604082019050611328600083018561105c565b61133560208301846112b2565b9392505050565b6000602082019050611351600083018461106b565b92915050565b600060208201905061136c600083018461107a565b92915050565b60006020820190506113876000830184611089565b92915050565b600060208201905081810360008301526113a6816110a7565b9050919050565b60006080820190506113c260008301846110e7565b92915050565b600060a0820190506113dd600083018461113c565b92915050565b6000610160820190506113f960008301846111a4565b92915050565b600060208201905061141460008301846112b2565b92915050565b600082825260208201905092915050565b600061143682611472565b9050919050565b60008115159050919050565b60008160020b9050919050565b60006fffffffffffffffffffffffffffffffff82169050919050565b600073ffffffffffffffffffffffffffffffffffffffff82169050919050565b600062ffffff82169050919050565b6000819050919050565b60006114b682611505565b9050919050565b60006114c8826114cf565b9050919050565b60006114da82611472565b9050919050565b60006114ec826114f3565b9050919050565b60006114fe82611472565b9050919050565b600061151082611517565b9050919050565b600061152282611472565b9050919050565b6115328161142b565b811461153d57600080fd5b50565b6115498161143d565b811461155457600080fd5b50565b61156081611449565b811461156b57600080fd5b50565b61157781611456565b811461158257600080fd5b50565b61158e81611492565b811461159957600080fd5b50565b6115a5816114a1565b81146115b057600080fd5b5056fea26469706673582212207a0bb19e712ef303a5691832a736683c69349cc0dbd66af94785fc13d0aae0e264736f6c63430007060033",
  "linkReferences": {},
  "deployedLinkReferences": {}
}